{
  "_format": "hh-sol-artifact-1",
  "contractName": "Flashloan",
  "sourceName": "contracts/Flashloan.sol",
  "abi": [
    {
      "anonymous": false,
      "inputs": [
        {
          "indexed": false,
          "internalType": "address",
          "name": "recipient",
          "type": "address"
        },
        {
          "indexed": false,
          "internalType": "uint256",
          "name": "profit",
          "type": "uint256"
        }
      ],
      "name": "SentProfit",
      "type": "event"
    },
    {
      "anonymous": false,
      "inputs": [
        {
          "indexed": false,
          "internalType": "address",
          "name": "token",
          "type": "address"
        },
        {
          "indexed": false,
          "internalType": "uint256",
          "name": "amount",
          "type": "uint256"
        }
      ],
      "name": "SwapFinished",
      "type": "event"
    },
    {
      "anonymous": false,
      "inputs": [
        {
          "indexed": false,
          "internalType": "address",
          "name": "recipient",
          "type": "address"
        },
        {
          "indexed": false,
          "internalType": "uint256",
          "name": "amount",
          "type": "uint256"
        }
      ],
      "name": "WithdrawToken",
      "type": "event"
    },
    {
      "inputs": [
        {
          "internalType": "address",
          "name": "sender",
          "type": "address"
        },
        {
          "internalType": "uint256",
          "name": "baseAmount",
          "type": "uint256"
        },
        {
          "internalType": "uint256",
          "name": "quoteAmount",
          "type": "uint256"
        },
        {
          "internalType": "bytes",
          "name": "data",
          "type": "bytes"
        }
      ],
      "name": "DPPFlashLoanCall",
      "outputs": [],
      "stateMutability": "nonpayable",
      "type": "function"
    },
    {
      "inputs": [
        {
          "internalType": "address",
          "name": "sender",
          "type": "address"
        },
        {
          "internalType": "uint256",
          "name": "baseAmount",
          "type": "uint256"
        },
        {
          "internalType": "uint256",
          "name": "quoteAmount",
          "type": "uint256"
        },
        {
          "internalType": "bytes",
          "name": "data",
          "type": "bytes"
        }
      ],
      "name": "DSPFlashLoanCall",
      "outputs": [],
      "stateMutability": "nonpayable",
      "type": "function"
    },
    {
      "inputs": [
        {
          "internalType": "address",
          "name": "sender",
          "type": "address"
        },
        {
          "internalType": "uint256",
          "name": "baseAmount",
          "type": "uint256"
        },
        {
          "internalType": "uint256",
          "name": "quoteAmount",
          "type": "uint256"
        },
        {
          "internalType": "bytes",
          "name": "data",
          "type": "bytes"
        }
      ],
      "name": "DVMFlashLoanCall",
      "outputs": [],
      "stateMutability": "nonpayable",
      "type": "function"
    },
    {
      "inputs": [
        {
          "components": [
            {
              "internalType": "address",
              "name": "flashLoanPool",
              "type": "address"
            },
            {
              "internalType": "uint256",
              "name": "loanAmount",
              "type": "uint256"
            },
            {
              "components": [
                {
                  "internalType": "address[]",
                  "name": "path",
                  "type": "address[]"
                },
                {
                  "internalType": "contract IUniswapV2Router02",
                  "name": "router",
                  "type": "address"
                }
              ],
              "internalType": "struct Flashloan.Route[]",
              "name": "firstRoutes",
              "type": "tuple[]"
            },
            {
              "components": [
                {
                  "internalType": "address[]",
                  "name": "path",
                  "type": "address[]"
                },
                {
                  "internalType": "contract IUniswapV2Router02",
                  "name": "router",
                  "type": "address"
                }
              ],
              "internalType": "struct Flashloan.Route[]",
              "name": "secondRoutes",
              "type": "tuple[]"
            }
          ],
          "internalType": "struct Flashloan.FlashParams",
          "name": "params",
          "type": "tuple"
        }
      ],
      "name": "dodoFlashLoan",
      "outputs": [],
      "stateMutability": "nonpayable",
      "type": "function"
    }
  ],
  "bytecode": "0x608060405234801561001057600080fd5b50611d1c806100206000396000f3fe608060405234801561001057600080fd5b506004361061004c5760003560e01c80637ed1f1dd14610051578063b27f6a251461006d578063d5b9979714610089578063eb2021c3146100a5575b600080fd5b61006b600480360381019061006691906111c7565b6100c1565b005b610087600480360381019061008291906112f2565b6100d5565b005b6100a3600480360381019061009e91906111c7565b610493565b005b6100bf60048036038101906100ba91906111c7565b6104a7565b005b6100ce85858585856104bb565b5050505050565b60006040518060a001604052803373ffffffffffffffffffffffffffffffffffffffff168152602001836000015173ffffffffffffffffffffffffffffffffffffffff1681526020018360200151815260200183604001518152602001836060015181525060405160200161014a91906117b1565b60405160208183030381529060405290506000826040015160008151811061019b577f4e487b7100000000000000000000000000000000000000000000000000000000600052603260045260246000fd5b6020026020010151600001516000815181106101e0577f4e487b7100000000000000000000000000000000000000000000000000000000600052603260045260246000fd5b602002602001015190508073ffffffffffffffffffffffffffffffffffffffff16836000015173ffffffffffffffffffffffffffffffffffffffff16634a248d2a6040518163ffffffff1660e01b815260040160206040518083038186803b15801561024b57600080fd5b505afa15801561025f573d6000803e3d6000fd5b505050506040513d601f19601f82011682018060405250810190610283919061119e565b73ffffffffffffffffffffffffffffffffffffffff16141561031e57826000015173ffffffffffffffffffffffffffffffffffffffff1663d0a494e48460200151600030866040518563ffffffff1660e01b81526004016102e794939291906117d3565b600060405180830381600087803b15801561030157600080fd5b505af1158015610315573d6000803e3d6000fd5b5050505061048e565b8073ffffffffffffffffffffffffffffffffffffffff16836000015173ffffffffffffffffffffffffffffffffffffffff1663d4b970466040518163ffffffff1660e01b815260040160206040518083038186803b15801561037f57600080fd5b505afa158015610393573d6000803e3d6000fd5b505050506040513d601f19601f820116820180604052508101906103b7919061119e565b73ffffffffffffffffffffffffffffffffffffffff16141561045257826000015173ffffffffffffffffffffffffffffffffffffffff1663d0a494e46000856020015130866040518563ffffffff1660e01b815260040161041b94939291906116e5565b600060405180830381600087803b15801561043557600080fd5b505af1158015610449573d6000803e3d6000fd5b5050505061048d565b6040517f08c379a000000000000000000000000000000000000000000000000000000000815260040161048490611751565b60405180910390fd5b5b505050565b6104a085858585856104bb565b5050505050565b6104b485858585856104bb565b5050505050565b600082828101906104cc91906112b1565b90506000816060015160008151811061050e577f4e487b7100000000000000000000000000000000000000000000000000000000600052603260045260246000fd5b602002602001015160000151600081518110610553577f4e487b7100000000000000000000000000000000000000000000000000000000600052603260045260246000fd5b6020026020010151905081604001518173ffffffffffffffffffffffffffffffffffffffff166370a08231306040518263ffffffff1660e01b815260040161059b91906116a1565b60206040518083038186803b1580156105b357600080fd5b505afa1580156105c7573d6000803e3d6000fd5b505050506040513d601f19601f820116820180604052508101906105eb9190611333565b101561062c576040517f08c379a000000000000000000000000000000000000000000000000000000000815260040161062390611731565b60405180910390fd5b60005b82606001515181101561069d576106898360600151828151811061067c577f4e487b7100000000000000000000000000000000000000000000000000000000600052603260045260246000fd5b6020026020010151610a9c565b50808061069590611b2e565b91505061062f565b5060005b82608001515181101561070f576106fb836080015182815181106106ee577f4e487b7100000000000000000000000000000000000000000000000000000000600052603260045260246000fd5b6020026020010151610a9c565b50808061070790611b2e565b9150506106a1565b507ffdc1bd83776f7aa310fcf2b1915ae1c6c16a4cfb48ebcea2bf15febd084c03de818273ffffffffffffffffffffffffffffffffffffffff166370a08231306040518263ffffffff1660e01b815260040161076b91906116a1565b60206040518083038186803b15801561078357600080fd5b505afa158015610797573d6000803e3d6000fd5b505050506040513d601f19601f820116820180604052508101906107bb9190611333565b6040516107c99291906116bc565b60405180910390a181604001518173ffffffffffffffffffffffffffffffffffffffff166370a08231306040518263ffffffff1660e01b815260040161080f91906116a1565b60206040518083038186803b15801561082757600080fd5b505afa15801561083b573d6000803e3d6000fd5b505050506040513d601f19601f8201168201806040525081019061085f9190611333565b10156108a0576040517f08c379a000000000000000000000000000000000000000000000000000000000815260040161089790611771565b60405180910390fd5b8073ffffffffffffffffffffffffffffffffffffffff1663a9059cbb836020015184604001516040518363ffffffff1660e01b81526004016108e39291906116bc565b602060405180830381600087803b1580156108fd57600080fd5b505af1158015610911573d6000803e3d6000fd5b505050506040513d601f19601f820116820180604052508101906109359190611288565b5060008173ffffffffffffffffffffffffffffffffffffffff166370a08231306040518263ffffffff1660e01b815260040161097191906116a1565b60206040518083038186803b15801561098957600080fd5b505afa15801561099d573d6000803e3d6000fd5b505050506040513d601f19601f820116820180604052508101906109c19190611333565b90508173ffffffffffffffffffffffffffffffffffffffff1663a9059cbb8460000151836040518363ffffffff1660e01b8152600401610a029291906116bc565b602060405180830381600087803b158015610a1c57600080fd5b505af1158015610a30573d6000803e3d6000fd5b505050506040513d601f19601f82011682018060405250810190610a549190611288565b507f2b312ac7b7c9b2fc53c9398d48ed2df4c1d192a03cc090b47087b2936ba0a61f836000015182604051610a8a9291906116bc565b60405180910390a15050505050505050565b606060008260000151600081518110610ade577f4e487b7100000000000000000000000000000000000000000000000000000000600052603260045260246000fd5b602002602001015173ffffffffffffffffffffffffffffffffffffffff166370a08231306040518263ffffffff1660e01b8152600401610b1e91906116a1565b60206040518083038186803b158015610b3657600080fd5b505afa158015610b4a573d6000803e3d6000fd5b505050506040513d601f19601f82011682018060405250810190610b6e9190611333565b90508260000151600081518110610bae577f4e487b7100000000000000000000000000000000000000000000000000000000600052603260045260246000fd5b602002602001015173ffffffffffffffffffffffffffffffffffffffff1663095ea7b38460200151836040518363ffffffff1660e01b8152600401610bf49291906116bc565b602060405180830381600087803b158015610c0e57600080fd5b505af1158015610c22573d6000803e3d6000fd5b505050506040513d601f19601f82011682018060405250810190610c469190611288565b610c85576040517f08c379a0000000000000000000000000000000000000000000000000000000008152600401610c7c90611791565b60405180910390fd5b826020015173ffffffffffffffffffffffffffffffffffffffff166338ed173982600186600001513060c842610cbb91906119d2565b6040518663ffffffff1660e01b8152600401610cdb95949392919061181f565b600060405180830381600087803b158015610cf557600080fd5b505af1158015610d09573d6000803e3d6000fd5b505050506040513d6000823e3d601f19601f82011682018060405250810190610d329190611247565b915050919050565b6000610d4d610d488461189e565b611879565b90508083825260208201905082856020860282011115610d6c57600080fd5b60005b85811015610d9c5781610d828882610e98565b845260208401935060208301925050600181019050610d6f565b5050509392505050565b6000610db9610db4846118ca565b611879565b90508083825260208201905082856020860282011115610dd857600080fd5b60005b85811015610e2257813567ffffffffffffffff811115610dfa57600080fd5b808601610e078982611110565b85526020850194506020840193505050600181019050610ddb565b5050509392505050565b6000610e3f610e3a846118f6565b611879565b90508083825260208201905082856020860282011115610e5e57600080fd5b60005b85811015610e8e5781610e748882611189565b845260208401935060208301925050600181019050610e61565b5050509392505050565b600081359050610ea781611c8a565b92915050565b600081519050610ebc81611c8a565b92915050565b600082601f830112610ed357600080fd5b8135610ee3848260208601610d3a565b91505092915050565b600082601f830112610efd57600080fd5b8135610f0d848260208601610da6565b91505092915050565b600082601f830112610f2757600080fd5b8151610f37848260208601610e2c565b91505092915050565b600081519050610f4f81611ca1565b92915050565b60008083601f840112610f6757600080fd5b8235905067ffffffffffffffff811115610f8057600080fd5b602083019150836001820283011115610f9857600080fd5b9250929050565b600081359050610fae81611cb8565b92915050565b600060a08284031215610fc657600080fd5b610fd060a0611879565b90506000610fe084828501610e98565b6000830152506020610ff484828501610e98565b602083015250604061100884828501611174565b604083015250606082013567ffffffffffffffff81111561102857600080fd5b61103484828501610eec565b606083015250608082013567ffffffffffffffff81111561105457600080fd5b61106084828501610eec565b60808301525092915050565b60006080828403121561107e57600080fd5b6110886080611879565b9050600061109884828501610e98565b60008301525060206110ac84828501611174565b602083015250604082013567ffffffffffffffff8111156110cc57600080fd5b6110d884828501610eec565b604083015250606082013567ffffffffffffffff8111156110f857600080fd5b61110484828501610eec565b60608301525092915050565b60006040828403121561112257600080fd5b61112c6040611879565b9050600082013567ffffffffffffffff81111561114857600080fd5b61115484828501610ec2565b600083015250602061116884828501610f9f565b60208301525092915050565b60008135905061118381611ccf565b92915050565b60008151905061119881611ccf565b92915050565b6000602082840312156111b057600080fd5b60006111be84828501610ead565b91505092915050565b6000806000806000608086880312156111df57600080fd5b60006111ed88828901610e98565b95505060206111fe88828901611174565b945050604061120f88828901611174565b935050606086013567ffffffffffffffff81111561122c57600080fd5b61123888828901610f55565b92509250509295509295909350565b60006020828403121561125957600080fd5b600082015167ffffffffffffffff81111561127357600080fd5b61127f84828501610f16565b91505092915050565b60006020828403121561129a57600080fd5b60006112a884828501610f40565b91505092915050565b6000602082840312156112c357600080fd5b600082013567ffffffffffffffff8111156112dd57600080fd5b6112e984828501610fb4565b91505092915050565b60006020828403121561130457600080fd5b600082013567ffffffffffffffff81111561131e57600080fd5b61132a8482850161106c565b91505092915050565b60006020828403121561134557600080fd5b600061135384828501611189565b91505092915050565b60006113688383611388565b60208301905092915050565b60006113808383611646565b905092915050565b61139181611a28565b82525050565b6113a081611a28565b82525050565b60006113b182611942565b6113bb818561197d565b93506113c683611922565b8060005b838110156113f75781516113de888261135c565b97506113e983611963565b9250506001810190506113ca565b5085935050505092915050565b600061140f82611942565b611419818561198e565b935061142483611922565b8060005b8381101561145557815161143c888261135c565b975061144783611963565b925050600181019050611428565b5085935050505092915050565b600061146d8261194d565b611477818561199f565b93508360208202850161148985611932565b8060005b858110156114c557848403895281516114a68582611374565b94506114b183611970565b925060208a0199505060018101905061148d565b50829750879550505050505092915050565b60006114e282611958565b6114ec81856119b0565b93506114fc818560208601611aca565b61150581611bd5565b840191505092915050565b61151981611a82565b82525050565b61152881611aa6565b82525050565b61153781611ab8565b82525050565b600061154a601b836119c1565b915061155582611be6565b602082019050919050565b600061156d6012836119c1565b915061157882611c0f565b602082019050919050565b60006115906020836119c1565b915061159b82611c38565b602082019050919050565b60006115b3600f836119c1565b91506115be82611c61565b602082019050919050565b600060a0830160008301516115e16000860182611388565b5060208301516115f46020860182611388565b5060408301516116076040860182611683565b506060830151848203606086015261161f8282611462565b915050608083015184820360808601526116398282611462565b9150508091505092915050565b6000604083016000830151848203600086015261166382826113a6565b91505060208301516116786020860182611510565b508091505092915050565b61168c81611a78565b82525050565b61169b81611a78565b82525050565b60006020820190506116b66000830184611397565b92915050565b60006040820190506116d16000830185611397565b6116de6020830184611692565b9392505050565b60006080820190506116fa600083018761151f565b6117076020830186611692565b6117146040830185611397565b818103606083015261172681846114d7565b905095945050505050565b6000602082019050818103600083015261174a8161153d565b9050919050565b6000602082019050818103600083015261176a81611560565b9050919050565b6000602082019050818103600083015261178a81611583565b9050919050565b600060208201905081810360008301526117aa816115a6565b9050919050565b600060208201905081810360008301526117cb81846115c9565b905092915050565b60006080820190506117e86000830187611692565b6117f5602083018661151f565b6118026040830185611397565b818103606083015261181481846114d7565b905095945050505050565b600060a0820190506118346000830188611692565b611841602083018761152e565b81810360408301526118538186611404565b90506118626060830185611397565b61186f6080830184611692565b9695505050505050565b6000611883611894565b905061188f8282611afd565b919050565b6000604051905090565b600067ffffffffffffffff8211156118b9576118b8611ba6565b5b602082029050602081019050919050565b600067ffffffffffffffff8211156118e5576118e4611ba6565b5b602082029050602081019050919050565b600067ffffffffffffffff82111561191157611910611ba6565b5b602082029050602081019050919050565b6000819050602082019050919050565b6000819050602082019050919050565b600081519050919050565b600081519050919050565b600081519050919050565b6000602082019050919050565b6000602082019050919050565b600082825260208201905092915050565b600082825260208201905092915050565b600082825260208201905092915050565b600082825260208201905092915050565b600082825260208201905092915050565b60006119dd82611a78565b91506119e883611a78565b9250827fffffffffffffffffffffffffffffffffffffffffffffffffffffffffffffffff03821115611a1d57611a1c611b77565b5b828201905092915050565b6000611a3382611a58565b9050919050565b60008115159050919050565b6000611a5182611a28565b9050919050565b600073ffffffffffffffffffffffffffffffffffffffff82169050919050565b6000819050919050565b6000611a8d82611a94565b9050919050565b6000611a9f82611a58565b9050919050565b6000611ab182611a78565b9050919050565b6000611ac382611a78565b9050919050565b60005b83811015611ae8578082015181840152602081019050611acd565b83811115611af7576000848401525b50505050565b611b0682611bd5565b810181811067ffffffffffffffff82111715611b2557611b24611ba6565b5b80604052505050565b6000611b3982611a78565b91507fffffffffffffffffffffffffffffffffffffffffffffffffffffffffffffffff821415611b6c57611b6b611b77565b5b600182019050919050565b7f4e487b7100000000000000000000000000000000000000000000000000000000600052601160045260246000fd5b7f4e487b7100000000000000000000000000000000000000000000000000000000600052604160045260246000fd5b6000601f19601f8301169050919050565b7f4661696c656420746f20626f72726f77206c6f616e20746f6b656e0000000000600082015250565b7f57726f6e6720706f6f6c20616464726573730000000000000000000000000000600082015250565b7f4e6f7420656e6f75676820616d6f756e7420746f2072657475726e206c6f616e600082015250565b7f617070726f7665206661696c65642e0000000000000000000000000000000000600082015250565b611c9381611a28565b8114611c9e57600080fd5b50565b611caa81611a3a565b8114611cb557600080fd5b50565b611cc181611a46565b8114611ccc57600080fd5b50565b611cd881611a78565b8114611ce357600080fd5b5056fea2646970667358221220a2489ca09949dd7f1d1f6db1f71b48bcbcbb153008cea18d7fdd113838bd360d64736f6c63430008040033",
  "linkReferences": {},
  "deployedLinkReferences": {}
}