{
  "_format": "hh-sol-artifact-1",
  "contractName": "Flashloan",
  "sourceName": "contracts/Flashloan.sol",
  "abi": [
    {
      "inputs": [
        {
          "internalType": "address",
          "name": "_router",
          "type": "address"
        }
      ],
      "stateMutability": "nonpayable",
      "type": "constructor"
    },
    {
      "anonymous": false,
      "inputs": [
        {
          "indexed": false,
          "internalType": "address",
          "name": "recipient",
          "type": "address"
        },
        {
          "indexed": false,
          "internalType": "uint256",
          "name": "profit",
          "type": "uint256"
        }
      ],
      "name": "SentProfit",
      "type": "event"
    },
    {
      "anonymous": false,
      "inputs": [
        {
          "indexed": false,
          "internalType": "address",
          "name": "token",
          "type": "address"
        },
        {
          "indexed": false,
          "internalType": "uint256",
          "name": "amount",
          "type": "uint256"
        }
      ],
      "name": "SwapFinished",
      "type": "event"
    },
    {
      "inputs": [
        {
          "internalType": "address",
          "name": "sender",
          "type": "address"
        },
        {
          "internalType": "uint256",
          "name": "baseAmount",
          "type": "uint256"
        },
        {
          "internalType": "uint256",
          "name": "quoteAmount",
          "type": "uint256"
        },
        {
          "internalType": "bytes",
          "name": "data",
          "type": "bytes"
        }
      ],
      "name": "DPPFlashLoanCall",
      "outputs": [],
      "stateMutability": "nonpayable",
      "type": "function"
    },
    {
      "inputs": [
        {
          "internalType": "address",
          "name": "sender",
          "type": "address"
        },
        {
          "internalType": "uint256",
          "name": "baseAmount",
          "type": "uint256"
        },
        {
          "internalType": "uint256",
          "name": "quoteAmount",
          "type": "uint256"
        },
        {
          "internalType": "bytes",
          "name": "data",
          "type": "bytes"
        }
      ],
      "name": "DSPFlashLoanCall",
      "outputs": [],
      "stateMutability": "nonpayable",
      "type": "function"
    },
    {
      "inputs": [
        {
          "internalType": "address",
          "name": "sender",
          "type": "address"
        },
        {
          "internalType": "uint256",
          "name": "baseAmount",
          "type": "uint256"
        },
        {
          "internalType": "uint256",
          "name": "quoteAmount",
          "type": "uint256"
        },
        {
          "internalType": "bytes",
          "name": "data",
          "type": "bytes"
        }
      ],
      "name": "DVMFlashLoanCall",
      "outputs": [],
      "stateMutability": "nonpayable",
      "type": "function"
    },
    {
      "inputs": [
        {
          "components": [
            {
              "internalType": "address",
              "name": "flashLoanPool",
              "type": "address"
            },
            {
              "internalType": "uint256",
              "name": "loanAmount",
              "type": "uint256"
            },
            {
              "components": [
                {
                  "components": [
                    {
                      "components": [
                        {
                          "internalType": "uint8",
                          "name": "protocol",
                          "type": "uint8"
                        },
                        {
                          "internalType": "uint16",
                          "name": "part",
                          "type": "uint16"
                        }
                      ],
                      "internalType": "struct IFlashloan.Swap[]",
                      "name": "swaps",
                      "type": "tuple[]"
                    },
                    {
                      "internalType": "address[]",
                      "name": "path",
                      "type": "address[]"
                    }
                  ],
                  "internalType": "struct IFlashloan.Hop[]",
                  "name": "hops",
                  "type": "tuple[]"
                },
                {
                  "internalType": "uint16",
                  "name": "part",
                  "type": "uint16"
                }
              ],
              "internalType": "struct IFlashloan.Route[]",
              "name": "firstRoutes",
              "type": "tuple[]"
            },
            {
              "components": [
                {
                  "components": [
                    {
                      "components": [
                        {
                          "internalType": "uint8",
                          "name": "protocol",
                          "type": "uint8"
                        },
                        {
                          "internalType": "uint16",
                          "name": "part",
                          "type": "uint16"
                        }
                      ],
                      "internalType": "struct IFlashloan.Swap[]",
                      "name": "swaps",
                      "type": "tuple[]"
                    },
                    {
                      "internalType": "address[]",
                      "name": "path",
                      "type": "address[]"
                    }
                  ],
                  "internalType": "struct IFlashloan.Hop[]",
                  "name": "hops",
                  "type": "tuple[]"
                },
                {
                  "internalType": "uint16",
                  "name": "part",
                  "type": "uint16"
                }
              ],
              "internalType": "struct IFlashloan.Route[]",
              "name": "secondRoutes",
              "type": "tuple[]"
            }
          ],
          "internalType": "struct IFlashloan.FlashParams",
          "name": "params",
          "type": "tuple"
        }
      ],
      "name": "dodoFlashLoan",
      "outputs": [],
      "stateMutability": "nonpayable",
      "type": "function"
    }
  ],
  "bytecode": "0x60806040523480156200001157600080fd5b506040516200216b3803806200216b83398101604081905262000034916200006d565b600080546001600160a01b0319166001600160a01b0392909216919091179055620000c2565b80516200006781620000a8565b92915050565b6000602082840312156200008057600080fd5b60006200008e84846200005a565b949350505050565b60006001600160a01b03821662000067565b620000b38162000096565b8114620000bf57600080fd5b50565b61209980620000d26000396000f3fe608060405234801561001057600080fd5b506004361061004c5760003560e01c80637ed1f1dd14610051578063a1fd1a0814610066578063d5b9979714610051578063eb2021c314610051575b600080fd5b61006461005f3660046116f3565b610079565b005b6100646100743660046117f6565b61008d565b610086858585858561044a565b5050505050565b8060006100c582604001516000815181106100b857634e487b7160e01b600052603260045260246000fd5b6020026020010151610915565b9050600082600001516001600160a01b0316634a248d2a6040518163ffffffff1660e01b815260040160206040518083038186803b15801561010657600080fd5b505afa15801561011a573d6000803e3d6000fd5b505050506040513d601f19601f8201168201806040525081019061013e91906116d5565b6001600160a01b0316826001600160a01b0316149050600083600001516001600160a01b031663d4b970466040518163ffffffff1660e01b815260040160206040518083038186803b15801561019357600080fd5b505afa1580156101a7573d6000803e3d6000fd5b505050506040513d601f19601f820116820180604052508101906101cb91906116d5565b6001600160a01b0316836001600160a01b031614905081806101ea5750805b61020f5760405162461bcd60e51b815260040161020690611dc9565b60405180910390fd5b60006040518060a00160405280336001600160a01b0316815260200187600001516001600160a01b031681526020018760200151815260200187604001518152602001876060015181525060405160200161026a9190611df8565b604051602081830303815290604052905060006102a587604001516000815181106100b857634e487b7160e01b600052603260045260246000fd5b905086600001516001600160a01b031663d0a494e4826001600160a01b031689600001516001600160a01b0316634a248d2a6040518163ffffffff1660e01b815260040160206040518083038186803b15801561030157600080fd5b505afa158015610315573d6000803e3d6000fd5b505050506040513d601f19601f8201168201806040525081019061033991906116d5565b6001600160a01b03161461034e576000610354565b88602001515b836001600160a01b03168a600001516001600160a01b0316634a248d2a6040518163ffffffff1660e01b815260040160206040518083038186803b15801561039b57600080fd5b505afa1580156103af573d6000803e3d6000fd5b505050506040513d601f19601f820116820180604052508101906103d391906116d5565b6001600160a01b0316146103eb5789602001516103ee565b60005b30866040518563ffffffff1660e01b815260040161040f9493929190611e5c565b600060405180830381600087803b15801561042957600080fd5b505af115801561043d573d6000803e3d6000fd5b5050505050505050505050565b6000610458828401846117c2565b9050600061048482606001516000815181106100b857634e487b7160e01b600052603260045260246000fd5b905060006104b083608001516000815181106100b857634e487b7160e01b600052603260045260246000fd5b90508260400151826001600160a01b03166370a08231306040518263ffffffff1660e01b81526004016104e39190611d45565b60206040518083038186803b1580156104fb57600080fd5b505afa15801561050f573d6000803e3d6000fd5b505050506040513d601f19601f820116820180604052508101906105339190611848565b10156105515760405162461bcd60e51b815260040161020690611d89565b61056383606001518460400151610977565b6040516370a0823160e01b81526000906001600160a01b038316906370a0823190610592903090600401611d45565b60206040518083038186803b1580156105aa57600080fd5b505afa1580156105be573d6000803e3d6000fd5b505050506040513d601f19601f820116820180604052508101906105e29190611848565b90506105f2846080015182610977565b7ffdc1bd83776f7aa310fcf2b1915ae1c6c16a4cfb48ebcea2bf15febd084c03de83846001600160a01b03166370a08231306040518263ffffffff1660e01b81526004016106409190611d45565b60206040518083038186803b15801561065857600080fd5b505afa15801561066c573d6000803e3d6000fd5b505050506040513d601f19601f820116820180604052508101906106909190611848565b60405161069e929190611d6e565b60405180910390a160408085015190516370a0823160e01b81526001600160a01b038516906370a08231906106d7903090600401611d45565b60206040518083038186803b1580156106ef57600080fd5b505afa158015610703573d6000803e3d6000fd5b505050506040513d601f19601f820116820180604052508101906107279190611848565b10156107455760405162461bcd60e51b815260040161020690611da9565b6020840151604080860151905163a9059cbb60e01b81526001600160a01b0386169263a9059cbb9261077992600401611d6e565b602060405180830381600087803b15801561079357600080fd5b505af11580156107a7573d6000803e3d6000fd5b505050506040513d601f19601f820116820180604052508101906107cb91906117a4565b506040516370a0823160e01b81526000906001600160a01b038516906370a08231906107fb903090600401611d45565b60206040518083038186803b15801561081357600080fd5b505afa158015610827573d6000803e3d6000fd5b505050506040513d601f19601f8201168201806040525081019061084b9190611848565b855160405163a9059cbb60e01b81529192506001600160a01b0386169163a9059cbb9161087c918590600401611d6e565b602060405180830381600087803b15801561089657600080fd5b505af11580156108aa573d6000803e3d6000fd5b505050506040513d601f19601f820116820180604052508101906108ce91906117a4565b5084516040517f2b312ac7b7c9b2fc53c9398d48ed2df4c1d192a03cc090b47087b2936ba0a61f91610901918490611d6e565b60405180910390a150505050505050505050565b6000816000015160008151811061093c57634e487b7160e01b600052603260045260246000fd5b60200260200101516020015160008151811061096857634e487b7160e01b600052603260045260246000fd5b60200260200101519050919050565b816000805b82518110156109d0578281815181106109a557634e487b7160e01b600052603260045260246000fd5b602002602001015160200151826109bc9190611ee3565b9150806109c881611fc3565b91505061097c565b508061ffff16612710146109f65760405162461bcd60e51b815260040161020690611dd9565b60005b8451811015610086576000610a39868381518110610a2757634e487b7160e01b600052603260045260246000fd5b60200260200101516020015186610a7f565b9050610a6c868381518110610a5e57634e487b7160e01b600052603260045260246000fd5b602002602001015182610aa3565b5080610a7781611fc3565b9150506109f9565b6000612710610a9261ffff851684611f33565b610a9c9190611f1f565b9392505050565b8060005b835151811015610afa57610ae684600001518281518110610ad857634e487b7160e01b600052603260045260246000fd5b602002602001015183610b00565b915080610af281611fc3565b915050610aa7565b50505050565b815160009081805b8251811015610b5c57828181518110610b3157634e487b7160e01b600052603260045260246000fd5b60200260200101516020015182610b489190611ee3565b915080610b5481611fc3565b915050610b08565b508061ffff1661271014610b825760405162461bcd60e51b815260040161020690611d99565b6000805b865151811015610c27576000610bcb88600001518381518110610bb957634e487b7160e01b600052603260045260246000fd5b60200260200101516020015188610a7f565b9050610c0788600001518381518110610bf457634e487b7160e01b600052603260045260246000fd5b6020026020010151896020015183610c31565b610c119084611f0c565b9250508080610c1f90611fc3565b915050610b86565b5095945050505050565b825160009060ff16610c4f57610c48848484610c8b565b9050610a9c565b610c5a848484610f5a565b600181518110610c7a57634e487b7160e01b600052603260045260246000fd5b602002602001015190509392505050565b60008054845160405163cac73ed760e01b815283926001600160a01b03169163cac73ed791610cbd9190600401611e96565b60206040518083038186803b158015610cd557600080fd5b505afa158015610ce9573d6000803e3d6000fd5b505050506040513d601f19601f82011682018060405250810190610d0d91906116d5565b90506000819050610d4785600081518110610d3857634e487b7160e01b600052603260045260246000fd5b602002602001015182866110a7565b6000805486516001600160a01b039091169063fee998989088908490610d7d57634e487b7160e01b600052603260045260246000fd5b602002602001015188600181518110610da657634e487b7160e01b600052603260045260246000fd5b60200260200101516040518363ffffffff1660e01b8152600401610dcb929190611d53565b60206040518083038186803b158015610de357600080fd5b505afa158015610df7573d6000803e3d6000fd5b505050506040513d601f19601f82011682018060405250810190610e1b919061182a565b9050816001600160a01b031663414bf38960405180610100016040528089600081518110610e5957634e487b7160e01b600052603260045260246000fd5b60200260200101516001600160a01b0316815260200189600181518110610e9057634e487b7160e01b600052603260045260246000fd5b60200260200101516001600160a01b031681526020018462ffffff168152602001306001600160a01b031681526020014281526020018881526020016000815260200160006001600160a01b03168152506040518263ffffffff1660e01b8152600401610efd9190611de9565b602060405180830381600087803b158015610f1757600080fd5b505af1158015610f2b573d6000803e3d6000fd5b505050506040513d601f19601f82011682018060405250810190610f4f9190611848565b979650505050505050565b60008054845160405163cac73ed760e01b8152606093926001600160a01b03169163cac73ed791610f8e9190600401611e96565b60206040518083038186803b158015610fa657600080fd5b505afa158015610fba573d6000803e3d6000fd5b505050506040513d601f19601f82011682018060405250810190610fde91906116d5565b90506110138460008151811061100457634e487b7160e01b600052603260045260246000fd5b602002602001015182856110a7565b6040516338ed173960e01b81526001600160a01b038216906338ed173990611048908690600190899030904290600401611e09565b600060405180830381600087803b15801561106257600080fd5b505af1158015611076573d6000803e3d6000fd5b505050506040513d6000823e601f3d908101601f1916820160405261109e9190810190611770565b95945050505050565b60405163095ea7b360e01b81526001600160a01b0384169063095ea7b3906110d59085908590600401611d6e565b602060405180830381600087803b1580156110ef57600080fd5b505af1158015611103573d6000803e3d6000fd5b505050506040513d601f19601f8201168201806040525081019061112791906117a4565b6111435760405162461bcd60e51b815260040161020690611db9565b505050565b600061115b61115684611ec0565b611ea4565b9050808382526020820190508285602086028201111561117a57600080fd5b60005b858110156111a657816111908882611345565b845250602092830192919091019060010161117d565b5050509392505050565b60006111be61115684611ec0565b905080838252602082019050828560208602820111156111dd57600080fd5b60005b858110156111a65781356001600160401b038111156111fe57600080fd5b80860161120b89826115af565b8552505060209283019291909101906001016111e0565b600061123061115684611ec0565b9050808382526020820190508285602086028201111561124f57600080fd5b60005b858110156111a65781356001600160401b0381111561127057600080fd5b80860161127d8982611623565b855250506020928301929190910190600101611252565b60006112a261115684611ec0565b838152905060208101826040850281018610156112be57600080fd5b60005b858110156111a657816112d48882611674565b845250602090920191604091909101906001016112c1565b60006112fa61115684611ec0565b9050808382526020820190508285602086028201111561131957600080fd5b60005b858110156111a6578161132f88826116bf565b845250602092830192919091019060010161131c565b803561135081612020565b92915050565b805161135081612020565b600082601f83011261137257600080fd5b8135611382848260208601611148565b949350505050565b600082601f83011261139b57600080fd5b81356113828482602086016111b0565b600082601f8301126113bc57600080fd5b8135611382848260208601611222565b600082601f8301126113dd57600080fd5b8135611382848260208601611294565b600082601f8301126113fe57600080fd5b81516113828482602086016112ec565b805161135081612037565b60008083601f84011261142b57600080fd5b5081356001600160401b0381111561144257600080fd5b60208301915083600182028301111561145a57600080fd5b9250929050565b600060a0828403121561147357600080fd5b61147d60a0611ea4565b9050600061148b8484611345565b825250602061149c84848301611345565b60208301525060406114b0848285016116b4565b60408301525060608201356001600160401b038111156114cf57600080fd5b6114db848285016113ab565b60608301525060808201356001600160401b038111156114fa57600080fd5b611506848285016113ab565b60808301525092915050565b60006080828403121561152457600080fd5b61152e6080611ea4565b9050600061153c8484611345565b825250602061154d848483016116b4565b60208301525060408201356001600160401b0381111561156c57600080fd5b611578848285016113ab565b60408301525060608201356001600160401b0381111561159757600080fd5b6115a3848285016113ab565b60608301525092915050565b6000604082840312156115c157600080fd5b6115cb6040611ea4565b905081356001600160401b038111156115e357600080fd5b6115ef848285016113cc565b82525060208201356001600160401b0381111561160b57600080fd5b61161784828501611361565b60208301525092915050565b60006040828403121561163557600080fd5b61163f6040611ea4565b905081356001600160401b0381111561165757600080fd5b6116638482850161138a565b82525060206116178484830161169e565b60006040828403121561168657600080fd5b6116906040611ea4565b9050600061166384846116ca565b80356113508161203f565b805161135081612049565b803561135081612054565b805161135081612054565b80356113508161205a565b6000602082840312156116e757600080fd5b60006113828484611356565b60008060008060006080868803121561170b57600080fd5b60006117178888611345565b9550506020611728888289016116b4565b9450506040611739888289016116b4565b93505060608601356001600160401b0381111561175557600080fd5b61176188828901611419565b92509250509295509295909350565b60006020828403121561178257600080fd5b81516001600160401b0381111561179857600080fd5b611382848285016113ed565b6000602082840312156117b657600080fd5b6000611382848461140e565b6000602082840312156117d457600080fd5b81356001600160401b038111156117ea57600080fd5b61138284828501611461565b60006020828403121561180857600080fd5b81356001600160401b0381111561181e57600080fd5b61138284828501611512565b60006020828403121561183c57600080fd5b600061138284846116a9565b60006020828403121561185a57600080fd5b600061138284846116bf565b600061187283836118a6565b505060200190565b6000610a9c8383611c87565b6000610a9c8383611cb9565b600061189e8383611cee565b505060400190565b6118af81611f52565b82525050565b60006118bf825190565b80845260209384019383018060005b838110156118f35781516118e28882611866565b9750602083019250506001016118ce565b509495945050505050565b6000611908825190565b80845260209384019383018060005b838110156118f357815161192b8882611866565b975060208301925050600101611917565b6000611946825190565b808452602084019350836020820285016119608560200190565b8060005b85811015611995578484038952815161197d858261187a565b94506020830160209a909a0199925050600101611964565b5091979650505050505050565b60006119ac825190565b808452602084019350836020820285016119c68560200190565b8060005b8581101561199557848403895281516119e38582611886565b94506020830160209a909a01999250506001016119ca565b6000611a05825190565b80845260209384019383018060005b838110156118f3578151611a288882611892565b975060208301925050600101611a14565b6000611a43825190565b808452602084019350611a5a818560208601611f6b565b601f01601f19169290920192915050565b6118af81611f63565b601b81526000602082017f4661696c656420746f20626f72726f77206c6f616e20746f6b656e0000000000815291505b5060200190565b600f81526000602082016e29bbb0b8103830b93a1032b93937b960891b81529150611aa4565b60208082527f4e6f7420656e6f75676820616d6f756e7420746f2072657475726e206c6f616e91019081526000611aa4565b600f81526000602082016e30b8383937bb32903330b4b632b21760891b81529150611aa4565b601c81526000602082017f57726f6e6720666c6173686c6f616e20706f6f6c20616464726573730000000081529150611aa4565b601081526000602082016f2937baba32903830b93a1032b93937b960811b81529150611aa4565b8051610100830190611b9684826118a6565b506020820151611ba960208501826118a6565b506040820151611bbc6040850182611d2b565b506060820151611bcf60608501826118a6565b506080820151611be26080850182611d36565b5060a0820151611bf560a0850182611d36565b5060c0820151611c0860c0850182611d36565b5060e0820151610afa60e0850182611d12565b805160009060a0840190611c2f85826118a6565b506020830151611c4260208601826118a6565b506040830151611c556040860182611d36565b5060608301518482036060860152611c6d82826119a2565b9150506080830151848203608086015261109e82826119a2565b8051604080845260009190840190611c9f82826119fb565b9150506020830151848203602086015261109e82826118b5565b8051604080845260009190840190611cd1828261193c565b9150506020830151611ce66020860182611d21565b509392505050565b80516040830190611cff8482611d3c565b506020820151610afa6020850182611d21565b6001600160a01b0381166118af565b61ffff81166118af565b62ffffff81166118af565b806118af565b60ff81166118af565b6020810161135082846118a6565b60408101611d6182856118a6565b610a9c60208301846118a6565b60408101611d7c82856118a6565b610a9c6020830184611d36565b6020808252810161135081611a74565b6020808252810161135081611aab565b6020808252810161135081611ad1565b6020808252810161135081611b03565b6020808252810161135081611b29565b6020808252810161135081611b5d565b61010081016113508284611b84565b60208082528101610a9c8184611c1b565b60a08101611e178288611d36565b611e246020830187611a6b565b8181036040830152611e3681866118fe565b9050611e4560608301856118a6565b611e526080830184611d36565b9695505050505050565b60808101611e6a8287611d36565b611e776020830186611d36565b611e8460408301856118a6565b8181036060830152611e528184611a39565b602081016113508284611d3c565b6000611eaf60405190565b9050611ebb8282611f97565b919050565b60006001600160401b03821115611ed957611ed961200a565b5060209081020190565b600061ffff8216915061ffff831692508261ffff03821115611f0757611f07611fde565b500190565b60008219821115611f0757611f07611fde565b600082611f2e57611f2e611ff4565b500490565b6000816000190483118215151615611f4d57611f4d611fde565b500290565b60006001600160a01b038216611350565b600081611350565b60005b83811015611f86578181015183820152602001611f6e565b83811115610afa5750506000910152565b601f19601f83011681018181106001600160401b0382111715611fbc57611fbc61200a565b6040525050565b6000600019821415611fd757611fd7611fde565b5060010190565b634e487b7160e01b600052601160045260246000fd5b634e487b7160e01b600052601260045260246000fd5b634e487b7160e01b600052604160045260246000fd5b61202981611f52565b811461203457600080fd5b50565b801515612029565b61ffff8116612029565b62ffffff8116612029565b80612029565b60ff811661202956fea26469706673582212208615f2fc5eea6376f73f14b278976d6e3e8e33166c89b09b6cf1919ed431881864736f6c63430008040033",
  "linkReferences": {},
  "deployedLinkReferences": {}
}